{
  "contractName": "SimpleStorage",
  "abi": [
    {
      "stateMutability": "payable",
      "type": "receive",
      "payable": true
    },
    {
      "inputs": [
        {
          "internalType": "address payable",
          "name": "_to",
          "type": "address"
        },
        {
          "internalType": "uint256",
          "name": "_amount",
          "type": "uint256"
        }
      ],
      "name": "depositTransfer",
      "outputs": [],
      "stateMutability": "nonpayable",
      "type": "function"
    },
    {
      "inputs": [
        {
          "internalType": "uint256",
          "name": "x",
          "type": "uint256"
        }
      ],
      "name": "set",
      "outputs": [],
      "stateMutability": "nonpayable",
      "type": "function"
    },
    {
      "inputs": [],
      "name": "get",
      "outputs": [
        {
          "internalType": "uint256",
          "name": "",
          "type": "uint256"
        }
      ],
      "stateMutability": "view",
      "type": "function",
      "constant": true
    }
  ],
  "bytecode": "0x608060405234801561001057600080fd5b50610285806100206000396000f3fe6080604052600436106100385760003560e01c806360fe47b1146100445780636d4ce63c1461006d578063a26ef3af146100985761003f565b3661003f57005b600080fd5b34801561005057600080fd5b5061006b6004803603810190610066919061015a565b6100c1565b005b34801561007957600080fd5b506100826100cb565b60405161008f9190610196565b60405180910390f35b3480156100a457600080fd5b506100bf60048036038101906100ba919061020f565b6100d4565b005b8060008190555050565b60008054905090565b8173ffffffffffffffffffffffffffffffffffffffff166108fc829081150290604051600060405180830381858888f1935050505015801561011a573d6000803e3d6000fd5b505050565b600080fd5b6000819050919050565b61013781610124565b811461014257600080fd5b50565b6000813590506101548161012e565b92915050565b6000602082840312156101705761016f61011f565b5b600061017e84828501610145565b91505092915050565b61019081610124565b82525050565b60006020820190506101ab6000830184610187565b92915050565b600073ffffffffffffffffffffffffffffffffffffffff82169050919050565b60006101dc826101b1565b9050919050565b6101ec816101d1565b81146101f757600080fd5b50565b600081359050610209816101e3565b92915050565b600080604083850312156102265761022561011f565b5b6000610234858286016101fa565b925050602061024585828601610145565b915050925092905056fea2646970667358221220b352895049bacd95630b0dfe49fd32a07ed1a25c07a8c8b7e313b6d2067990c164736f6c634300080d0033",
  "immutableReferences": {},
  "source": "pragma solidity >=0.4.16 <0.9.0;\r\n\r\ncontract SimpleStorage {\r\n    uint storedData;\r\n\t\r\n\t//funzione fallback per ricevere ether da fonti esterne\r\n\treceive() external payable {}\r\n\t\t\t\r\n\tfunction depositTransfer(address payable _to, uint256 _amount) public{\r\n\t\t\t_to.transfer(_amount);\r\n\t}\r\n\t\r\n    function set(uint x) public {\r\n        storedData = x;\r\n    }\r\n\r\n    function get() public view returns (uint) {\r\n        return storedData;\r\n    }\r\n}",
  "sourcePath": "C:\\Users\\Administrator\\Documents\\Project from git\\Training-Blockchain\\EsempioFacile\\contracts\\SimpleStorage.sol",
  "compiler": {
    "name": "solc",
    "version": "0.8.13+commit.abaa5c0e.Emscripten.clang"
  },
  "schemaVersion": "3.4.16",
  "updatedAt": "2023-11-21T12:39:29.249Z",
  "networkType": "ethereum",
  "devdoc": {
    "kind": "dev",
    "methods": {},
    "version": 1
  },
  "userdoc": {
    "kind": "user",
    "methods": {},
    "version": 1
  }
}